{
  "contractName": "CrowdSale",
  "abi": [
    {
      "constant": true,
      "inputs": [],
      "name": "period2",
      "outputs": [
        {
          "name": "",
          "type": "uint256"
        }
      ],
      "payable": false,
      "stateMutability": "view",
      "type": "function"
    },
    {
      "constant": true,
      "inputs": [],
      "name": "tokensRemindingICO",
      "outputs": [
        {
          "name": "",
          "type": "uint256"
        }
      ],
      "payable": false,
      "stateMutability": "view",
      "type": "function"
    },
    {
      "constant": true,
      "inputs": [],
      "name": "RESERVED_TOKENS_OPERATIONAL_EXPENSES",
      "outputs": [
        {
          "name": "",
          "type": "uint256"
        }
      ],
      "payable": false,
      "stateMutability": "view",
      "type": "function"
    },
    {
      "constant": false,
      "inputs": [],
      "name": "saleTokenPreICO",
      "outputs": [],
      "payable": true,
      "stateMutability": "payable",
      "type": "function"
    },
    {
      "constant": false,
      "inputs": [
        {
          "name": "_endPreICO",
          "type": "uint256"
        }
      ],
      "name": "setEndPreICO",
      "outputs": [],
      "payable": false,
      "stateMutability": "nonpayable",
      "type": "function"
    },
    {
      "constant": true,
      "inputs": [],
      "name": "HARDCAP_TOKENS_ICO",
      "outputs": [
        {
          "name": "",
          "type": "uint256"
        }
      ],
      "payable": false,
      "stateMutability": "view",
      "type": "function"
    },
    {
      "constant": true,
      "inputs": [],
      "name": "decimals",
      "outputs": [
        {
          "name": "",
          "type": "uint256"
        }
      ],
      "payable": false,
      "stateMutability": "view",
      "type": "function"
    },
    {
      "constant": true,
      "inputs": [],
      "name": "whiteList",
      "outputs": [
        {
          "name": "",
          "type": "address"
        }
      ],
      "payable": false,
      "stateMutability": "view",
      "type": "function"
    },
    {
      "constant": true,
      "inputs": [],
      "name": "HARDCAP_TOKENS_PRE_ICO",
      "outputs": [
        {
          "name": "",
          "type": "uint256"
        }
      ],
      "payable": false,
      "stateMutability": "view",
      "type": "function"
    },
    {
      "constant": false,
      "inputs": [],
      "name": "unpause",
      "outputs": [],
      "payable": false,
      "stateMutability": "nonpayable",
      "type": "function"
    },
    {
      "constant": true,
      "inputs": [],
      "name": "minCap",
      "outputs": [
        {
          "name": "",
          "type": "uint256"
        }
      ],
      "payable": false,
      "stateMutability": "view",
      "type": "function"
    },
    {
      "constant": true,
      "inputs": [],
      "name": "period1",
      "outputs": [
        {
          "name": "",
          "type": "uint256"
        }
      ],
      "payable": false,
      "stateMutability": "view",
      "type": "function"
    },
    {
      "constant": true,
      "inputs": [],
      "name": "RESERVED_TOKENS_FOUNDERS",
      "outputs": [
        {
          "name": "",
          "type": "uint256"
        }
      ],
      "payable": false,
      "stateMutability": "view",
      "type": "function"
    },
    {
      "constant": true,
      "inputs": [],
      "name": "TokenSoldPreICO",
      "outputs": [
        {
          "name": "",
          "type": "uint256"
        }
      ],
      "payable": false,
      "stateMutability": "view",
      "type": "function"
    },
    {
      "constant": true,
      "inputs": [],
      "name": "endICO",
      "outputs": [
        {
          "name": "",
          "type": "uint256"
        }
      ],
      "payable": false,
      "stateMutability": "view",
      "type": "function"
    },
    {
      "constant": false,
      "inputs": [],
      "name": "refund",
      "outputs": [],
      "payable": false,
      "stateMutability": "nonpayable",
      "type": "function"
    },
    {
      "constant": true,
      "inputs": [],
      "name": "paused",
      "outputs": [
        {
          "name": "",
          "type": "bool"
        }
      ],
      "payable": false,
      "stateMutability": "view",
      "type": "function"
    },
    {
      "constant": false,
      "inputs": [
        {
          "name": "_to",
          "type": "address"
        },
        {
          "name": "_amount",
          "type": "uint256"
        }
      ],
      "name": "manualTransferToken",
      "outputs": [],
      "payable": false,
      "stateMutability": "nonpayable",
      "type": "function"
    },
    {
      "constant": true,
      "inputs": [],
      "name": "PreICORate",
      "outputs": [
        {
          "name": "",
          "type": "uint256"
        }
      ],
      "payable": false,
      "stateMutability": "view",
      "type": "function"
    },
    {
      "constant": true,
      "inputs": [],
      "name": "TokenSoldICO",
      "outputs": [
        {
          "name": "",
          "type": "uint256"
        }
      ],
      "payable": false,
      "stateMutability": "view",
      "type": "function"
    },
    {
      "constant": true,
      "inputs": [],
      "name": "endPreICO",
      "outputs": [
        {
          "name": "",
          "type": "uint256"
        }
      ],
      "payable": false,
      "stateMutability": "view",
      "type": "function"
    },
    {
      "constant": false,
      "inputs": [
        {
          "name": "_endICO",
          "type": "uint256"
        }
      ],
      "name": "setEndICO",
      "outputs": [],
      "payable": false,
      "stateMutability": "nonpayable",
      "type": "function"
    },
    {
      "constant": true,
      "inputs": [],
      "name": "isICO",
      "outputs": [
        {
          "name": "",
          "type": "bool"
        }
      ],
      "payable": false,
      "stateMutability": "view",
      "type": "function"
    },
    {
      "constant": true,
      "inputs": [],
      "name": "startICO",
      "outputs": [
        {
          "name": "",
          "type": "uint256"
        }
      ],
      "payable": false,
      "stateMutability": "view",
      "type": "function"
    },
    {
      "constant": false,
      "inputs": [],
      "name": "pause",
      "outputs": [],
      "payable": false,
      "stateMutability": "nonpayable",
      "type": "function"
    },
    {
      "constant": true,
      "inputs": [],
      "name": "period4",
      "outputs": [
        {
          "name": "",
          "type": "uint256"
        }
      ],
      "payable": false,
      "stateMutability": "view",
      "type": "function"
    },
    {
      "constant": true,
      "inputs": [],
      "name": "minCapReached",
      "outputs": [
        {
          "name": "",
          "type": "bool"
        }
      ],
      "payable": false,
      "stateMutability": "view",
      "type": "function"
    },
    {
      "constant": true,
      "inputs": [],
      "name": "owner",
      "outputs": [
        {
          "name": "",
          "type": "address"
        }
      ],
      "payable": false,
      "stateMutability": "view",
      "type": "function"
    },
    {
      "constant": false,
      "inputs": [
        {
          "name": "_ICORate",
          "type": "uint256"
        }
      ],
      "name": "setICORate",
      "outputs": [],
      "payable": false,
      "stateMutability": "nonpayable",
      "type": "function"
    },
    {
      "constant": false,
      "inputs": [
        {
          "name": "_withdrawWallet",
          "type": "address"
        }
      ],
      "name": "setWithdrawWallet",
      "outputs": [],
      "payable": false,
      "stateMutability": "nonpayable",
      "type": "function"
    },
    {
      "constant": true,
      "inputs": [],
      "name": "weiRaisedPreICO",
      "outputs": [
        {
          "name": "",
          "type": "uint256"
        }
      ],
      "payable": false,
      "stateMutability": "view",
      "type": "function"
    },
    {
      "constant": false,
      "inputs": [],
      "name": "burnUnsoldTokens",
      "outputs": [],
      "payable": false,
      "stateMutability": "nonpayable",
      "type": "function"
    },
    {
      "constant": false,
      "inputs": [],
      "name": "saleTokenICO",
      "outputs": [],
      "payable": true,
      "stateMutability": "payable",
      "type": "function"
    },
    {
      "constant": true,
      "inputs": [],
      "name": "weiRaisedICO",
      "outputs": [
        {
          "name": "",
          "type": "uint256"
        }
      ],
      "payable": false,
      "stateMutability": "view",
      "type": "function"
    },
    {
      "constant": true,
      "inputs": [],
      "name": "period3",
      "outputs": [
        {
          "name": "",
          "type": "uint256"
        }
      ],
      "payable": false,
      "stateMutability": "view",
      "type": "function"
    },
    {
      "constant": false,
      "inputs": [
        {
          "name": "_startICO",
          "type": "uint256"
        }
      ],
      "name": "setStartICO",
      "outputs": [],
      "payable": false,
      "stateMutability": "nonpayable",
      "type": "function"
    },
    {
      "constant": true,
      "inputs": [],
      "name": "isPreICO",
      "outputs": [
        {
          "name": "",
          "type": "bool"
        }
      ],
      "payable": false,
      "stateMutability": "view",
      "type": "function"
    },
    {
      "constant": true,
      "inputs": [],
      "name": "startPreICO",
      "outputs": [
        {
          "name": "",
          "type": "uint256"
        }
      ],
      "payable": false,
      "stateMutability": "view",
      "type": "function"
    },
    {
      "constant": true,
      "inputs": [],
      "name": "ICORate",
      "outputs": [
        {
          "name": "",
          "type": "uint256"
        }
      ],
      "payable": false,
      "stateMutability": "view",
      "type": "function"
    },
    {
      "constant": false,
      "inputs": [
        {
          "name": "_PreICORate",
          "type": "uint256"
        }
      ],
      "name": "setPreICORate",
      "outputs": [],
      "payable": false,
      "stateMutability": "nonpayable",
      "type": "function"
    },
    {
      "constant": false,
      "inputs": [],
      "name": "withdrawPreICO",
      "outputs": [],
      "payable": false,
      "stateMutability": "nonpayable",
      "type": "function"
    },
    {
      "constant": false,
      "inputs": [
        {
          "name": "newOwner",
          "type": "address"
        }
      ],
      "name": "transferOwnership",
      "outputs": [],
      "payable": false,
      "stateMutability": "nonpayable",
      "type": "function"
    },
    {
      "constant": false,
      "inputs": [
        {
          "name": "_startPreICO",
          "type": "uint256"
        }
      ],
      "name": "setStartPreICO",
      "outputs": [],
      "payable": false,
      "stateMutability": "nonpayable",
      "type": "function"
    },
    {
      "constant": true,
      "inputs": [],
      "name": "token",
      "outputs": [
        {
          "name": "",
          "type": "address"
        }
      ],
      "payable": false,
      "stateMutability": "view",
      "type": "function"
    },
    {
      "inputs": [
        {
          "name": "_startPreICO",
          "type": "uint256"
        },
        {
          "name": "_endPreICO",
          "type": "uint256"
        },
        {
          "name": "_startICO",
          "type": "uint256"
        },
        {
          "name": "_endICO",
          "type": "uint256"
        },
        {
          "name": "_PreICORate",
          "type": "uint256"
        },
        {
          "name": "_ICORate",
          "type": "uint256"
        },
        {
          "name": "_minCap",
          "type": "uint256"
        },
        {
          "name": "_founders",
          "type": "address"
        },
        {
          "name": "_operational",
          "type": "address"
        },
        {
          "name": "_withdrawWallet",
          "type": "address"
        }
      ],
      "payable": false,
      "stateMutability": "nonpayable",
      "type": "constructor"
    },
    {
      "payable": true,
      "stateMutability": "payable",
      "type": "fallback"
    },
    {
      "anonymous": false,
      "inputs": [],
      "name": "Pause",
      "type": "event"
    },
    {
      "anonymous": false,
      "inputs": [],
      "name": "Unpause",
      "type": "event"
    },
    {
      "anonymous": false,
      "inputs": [
        {
          "indexed": true,
          "name": "previousOwner",
          "type": "address"
        },
        {
          "indexed": true,
          "name": "newOwner",
          "type": "address"
        }
      ],
      "name": "OwnershipTransferred",
      "type": "event"
    }
  ],
  "bytecode": "0x606060405260008060146101000a81548160ff02191690831515021790555061a8c0600d5562015180600e556203f480600f55620546006010556200006e6012600a0a625b8d80026012600a0a621e8480026200064f6401000000000262001de6179091906401000000009004565b601155306200007c6200066e565b808273ffffffffffffffffffffffffffffffffffffffff1673ffffffffffffffffffffffffffffffffffffffff168152602001915050604051809103906000f0801515620000c957600080fd5b601460006101000a81548173ffffffffffffffffffffffffffffffffffffffff021916908373ffffffffffffffffffffffffffffffffffffffff16021790555034156200011557600080fd5b60405161014080620051dd83398101604052808051906020019091908051906020019091908051906020019091908051906020019091908051906020019091908051906020019091908051906020019091908051906020019091908051906020019091908051906020019091905050336000806101000a81548173ffffffffffffffffffffffffffffffffffffffff021916908373ffffffffffffffffffffffffffffffffffffffff160217905550620001ce6200067f565b604051809103906000f0801515620001e557600080fd5b600160006101000a81548173ffffffffffffffffffffffffffffffffffffffff021916908373ffffffffffffffffffffffffffffffffffffffff160217905550600073ffffffffffffffffffffffffffffffffffffffff168373ffffffffffffffffffffffffffffffffffffffff1614158015620002905750600073ffffffffffffffffffffffffffffffffffffffff168273ffffffffffffffffffffffffffffffffffffffff1614155b8015620002ca5750600073ffffffffffffffffffffffffffffffffffffffff168173ffffffffffffffffffffffffffffffffffffffff1614155b1515620002d657600080fd5b8989118015620002e55750428a115b1515620002f157600080fd5b87871180156200030057508888115b80156200030c57504288115b15156200031857600080fd5b600086118015620003295750600085115b15156200033557600080fd5b8960038190555088600481905550876005819055508660068190555085600781905550846008819055508360028190555080601360006101000a81548173ffffffffffffffffffffffffffffffffffffffff021916908373ffffffffffffffffffffffffffffffffffffffff160217905550601460009054906101000a900473ffffffffffffffffffffffffffffffffffffffff1673ffffffffffffffffffffffffffffffffffffffff1663f501d8b8846012600a0a62325aa0026040518363ffffffff167c0100000000000000000000000000000000000000000000000000000000028152600401808373ffffffffffffffffffffffffffffffffffffffff1673ffffffffffffffffffffffffffffffffffffffff16815260200182815260200192505050600060405180830381600087803b15156200047557600080fd5b6102c65a03f115156200048757600080fd5b505050601460009054906101000a900473ffffffffffffffffffffffffffffffffffffffff1673ffffffffffffffffffffffffffffffffffffffff1663f501d8b8836012600a0a62030d40026040518363ffffffff167c0100000000000000000000000000000000000000000000000000000000028152600401808373ffffffffffffffffffffffffffffffffffffffff1673ffffffffffffffffffffffffffffffffffffffff16815260200182815260200192505050600060405180830381600087803b15156200055857600080fd5b6102c65a03f115156200056a57600080fd5b505050601460009054906101000a900473ffffffffffffffffffffffffffffffffffffffff1673ffffffffffffffffffffffffffffffffffffffff1663f2fde38b336040518263ffffffff167c0100000000000000000000000000000000000000000000000000000000028152600401808273ffffffffffffffffffffffffffffffffffffffff1673ffffffffffffffffffffffffffffffffffffffff168152602001915050600060405180830381600087803b15156200062a57600080fd5b6102c65a03f115156200063c57600080fd5b5050505050505050505050505062000690565b60008082840190508381101515156200066457fe5b8091505092915050565b604051612333806200282883390190565b6040516106828062004b5b83390190565b61218880620006a06000396000f30060606040526004361061021a576000357c0100000000000000000000000000000000000000000000000000000000900463ffffffff168063030e3422146102565780630726a45a1461027f5780631b31c5c2146102a8578063279183b1146102d157806327f8d7ba146102db5780632e029c65146102fe578063313ce567146103275780633544a864146103505780633a752c31146103a55780633f4ba83a146103ce5780633fa615b0146103e3578063475fcbf61461040c5780634989ae8e146104355780634ccfaae11461045e5780634f24840914610487578063590e1ae3146104b05780635c975abb146104c5578063603a514a146104f257806360ca71b3146105345780636c0567871461055d57806377f3293a146105865780637e445d44146105af5780637ee55c97146105d25780637fa8c158146105ff5780638456cb5914610628578063853a07071461063d5780638b9add74146106665780638da5cb5b146106935780638f96be23146106e85780639373f4321461070b57806394014dc014610744578063940bb3441461076d578063a3e50c7314610782578063b1fe1b4a1461078c578063b307b704146107b5578063b32cb292146107de578063b60f5b9114610801578063bc40b52a1461082e578063d0f1803314610857578063d9796ed814610880578063f043f2b8146108a3578063f2fde38b146108b8578063f62cec27146108f1578063fc0c546a14610914575b610222610969565b156102345761022f610984565b610254565b61023c610c6f565b1561024e57610249610c8a565b610253565b600080fd5b5b005b341561026157600080fd5b610269610f74565b6040518082815260200191505060405180910390f35b341561028a57600080fd5b610292610f7a565b6040518082815260200191505060405180910390f35b34156102b357600080fd5b6102bb610f80565b6040518082815260200191505060405180910390f35b6102d9610984565b005b34156102e657600080fd5b6102fc6004808035906020019091905050610f8d565b005b341561030957600080fd5b61031161100d565b6040518082815260200191505060405180910390f35b341561033257600080fd5b61033a61101a565b6040518082815260200191505060405180910390f35b341561035b57600080fd5b61036361101f565b604051808273ffffffffffffffffffffffffffffffffffffffff1673ffffffffffffffffffffffffffffffffffffffff16815260200191505060405180910390f35b34156103b057600080fd5b6103b8611045565b6040518082815260200191505060405180910390f35b34156103d957600080fd5b6103e1611052565b005b34156103ee57600080fd5b6103f6611110565b6040518082815260200191505060405180910390f35b341561041757600080fd5b61041f611116565b6040518082815260200191505060405180910390f35b341561044057600080fd5b61044861111c565b6040518082815260200191505060405180910390f35b341561046957600080fd5b610471611129565b6040518082815260200191505060405180910390f35b341561049257600080fd5b61049a61112f565b6040518082815260200191505060405180910390f35b34156104bb57600080fd5b6104c3611135565b005b34156104d057600080fd5b6104d861147f565b604051808215151515815260200191505060405180910390f35b34156104fd57600080fd5b610532600480803573ffffffffffffffffffffffffffffffffffffffff16906020019091908035906020019091905050611492565b005b341561053f57600080fd5b610547611620565b6040518082815260200191505060405180910390f35b341561056857600080fd5b610570611626565b6040518082815260200191505060405180910390f35b341561059157600080fd5b61059961162c565b6040518082815260200191505060405180910390f35b34156105ba57600080fd5b6105d06004808035906020019091905050611632565b005b34156105dd57600080fd5b6105e5610c6f565b604051808215151515815260200191505060405180910390f35b341561060a57600080fd5b6106126116b2565b6040518082815260200191505060405180910390f35b341561063357600080fd5b61063b6116b8565b005b341561064857600080fd5b610650611778565b6040518082815260200191505060405180910390f35b341561067157600080fd5b61067961177e565b604051808215151515815260200191505060405180910390f35b341561069e57600080fd5b6106a661178d565b604051808273ffffffffffffffffffffffffffffffffffffffff1673ffffffffffffffffffffffffffffffffffffffff16815260200191505060405180910390f35b34156106f357600080fd5b61070960048080359060200190919050506117b2565b005b341561071657600080fd5b610742600480803573ffffffffffffffffffffffffffffffffffffffff16906020019091905050611826565b005b341561074f57600080fd5b610757611901565b6040518082815260200191505060405180910390f35b341561077857600080fd5b610780611907565b005b61078a610c8a565b005b341561079757600080fd5b61079f611a15565b6040518082815260200191505060405180910390f35b34156107c057600080fd5b6107c8611a1b565b6040518082815260200191505060405180910390f35b34156107e957600080fd5b6107ff6004808035906020019091905050611a21565b005b341561080c57600080fd5b610814610969565b604051808215151515815260200191505060405180910390f35b341561083957600080fd5b610841611a94565b6040518082815260200191505060405180910390f35b341561086257600080fd5b61086a611a9a565b6040518082815260200191505060405180910390f35b341561088b57600080fd5b6108a16004808035906020019091905050611aa0565b005b34156108ae57600080fd5b6108b6611b14565b005b34156108c357600080fd5b6108ef600480803573ffffffffffffffffffffffffffffffffffffffff16906020019091905050611bf8565b005b34156108fc57600080fd5b6109126004808035906020019091905050611d4d565b005b341561091f57600080fd5b610927611dc0565b604051808273ffffffffffffffffffffffffffffffffffffffff1673ffffffffffffffffffffffffffffffffffffffff16815260200191505060405180910390f35b6000600354421015801561097f57506004544211155b905090565b600080600080600060149054906101000a900460ff161515156109a657600080fd5b33600160009054906101000a900473ffffffffffffffffffffffffffffffffffffffff1673ffffffffffffffffffffffffffffffffffffffff16636f9170f6826000604051602001526040518263ffffffff167c0100000000000000000000000000000000000000000000000000000000028152600401808273ffffffffffffffffffffffffffffffffffffffff1673ffffffffffffffffffffffffffffffffffffffff168152602001915050602060405180830381600087803b1515610a6c57600080fd5b6102c65a03f11515610a7d57600080fd5b505050604051805190501515610a9257600080fd5b610a9a610969565b1515610aa557600080fd5b600034111515610ab457600080fd5b349450610acc85600b54611de690919063ffffffff16565b600b81905550610adc3386611e04565b610b206064610b12610aec611e9d565b606401610b046007548a611f7f90919063ffffffff16565b611f7f90919063ffffffff16565b611fba90919063ffffffff16565b9350610b2b85611fd5565b9250610b408385611de690919063ffffffff16565b9150610b5782600954611de690919063ffffffff16565b6009819055506012600a0a621e8480026009541115610b7557600080fd5b610b8a8260115461214390919063ffffffff16565b601181905550601460009054906101000a900473ffffffffffffffffffffffffffffffffffffffff1673ffffffffffffffffffffffffffffffffffffffff1663f501d8b833846040518363ffffffff167c0100000000000000000000000000000000000000000000000000000000028152600401808373ffffffffffffffffffffffffffffffffffffffff1673ffffffffffffffffffffffffffffffffffffffff16815260200182815260200192505050600060405180830381600087803b1515610c5457600080fd5b6102c65a03f11515610c6557600080fd5b5050505050505050565b60006005544210158015610c8557506006544211155b905090565b600080600060149054906101000a900460ff16151515610ca957600080fd5b33600160009054906101000a900473ffffffffffffffffffffffffffffffffffffffff1673ffffffffffffffffffffffffffffffffffffffff16636f9170f6826000604051602001526040518263ffffffff167c0100000000000000000000000000000000000000000000000000000000028152600401808273ffffffffffffffffffffffffffffffffffffffff1673ffffffffffffffffffffffffffffffffffffffff168152602001915050602060405180830381600087803b1515610d6f57600080fd5b6102c65a03f11515610d8057600080fd5b505050604051805190501515610d9557600080fd5b610d9d61177e565b1515610da857600080fd5b610db0610c6f565b1515610dbb57600080fd5b600034111515610dca57600080fd5b349250610de283600c54611de690919063ffffffff16565b600c81905550610dfd60085484611f7f90919063ffffffff16565b9150601460009054906101000a900473ffffffffffffffffffffffffffffffffffffffff1673ffffffffffffffffffffffffffffffffffffffff1663f501d8b833846040518363ffffffff167c0100000000000000000000000000000000000000000000000000000000028152600401808373ffffffffffffffffffffffffffffffffffffffff1673ffffffffffffffffffffffffffffffffffffffff16815260200182815260200192505050600060405180830381600087803b1515610ec357600080fd5b6102c65a03f11515610ed457600080fd5b505050610eec82600a54611de690919063ffffffff16565b600a81905550610f078260115461214390919063ffffffff16565b601181905550601360009054906101000a900473ffffffffffffffffffffffffffffffffffffffff1673ffffffffffffffffffffffffffffffffffffffff166108fc849081150290604051600060405180830381858888f193505050501515610f6f57600080fd5b505050565b600e5481565b60115481565b6012600a0a62030d400281565b6000809054906101000a900473ffffffffffffffffffffffffffffffffffffffff1673ffffffffffffffffffffffffffffffffffffffff163373ffffffffffffffffffffffffffffffffffffffff16141515610fe857600080fd5b4281118015610ff8575060035481115b151561100357600080fd5b8060048190555050565b6012600a0a625b8d800281565b601281565b600160009054906101000a900473ffffffffffffffffffffffffffffffffffffffff1681565b6012600a0a621e84800281565b6000809054906101000a900473ffffffffffffffffffffffffffffffffffffffff1673ffffffffffffffffffffffffffffffffffffffff163373ffffffffffffffffffffffffffffffffffffffff161415156110ad57600080fd5b600060149054906101000a900460ff1615156110c857600080fd5b60008060146101000a81548160ff0219169083151502179055507f7805862f689e2f13df9f062ff482ad3ad112aca9e0847911ed832e158c525b3360405160405180910390a1565b60025481565b600d5481565b6012600a0a62325aa00281565b60095481565b60065481565b6000806004544211151561114857600080fd5b61115061177e565b15151561115c57600080fd5b6000601260003373ffffffffffffffffffffffffffffffffffffffff1673ffffffffffffffffffffffffffffffffffffffff168152602001908152602001600020541115156111aa57600080fd5b601260003373ffffffffffffffffffffffffffffffffffffffff1673ffffffffffffffffffffffffffffffffffffffff168152602001908152602001600020549150601460009054906101000a900473ffffffffffffffffffffffffffffffffffffffff1673ffffffffffffffffffffffffffffffffffffffff166370a08231336000604051602001526040518263ffffffff167c0100000000000000000000000000000000000000000000000000000000028152600401808273ffffffffffffffffffffffffffffffffffffffff1673ffffffffffffffffffffffffffffffffffffffff168152602001915050602060405180830381600087803b15156112b157600080fd5b6102c65a03f115156112c257600080fd5b50505060405180519050905061132082601260003373ffffffffffffffffffffffffffffffffffffffff1673ffffffffffffffffffffffffffffffffffffffff1681526020019081526020016000205461214390919063ffffffff16565b601260003373ffffffffffffffffffffffffffffffffffffffff1673ffffffffffffffffffffffffffffffffffffffff16815260200190815260200160002081905550601460009054906101000a900473ffffffffffffffffffffffffffffffffffffffff1673ffffffffffffffffffffffffffffffffffffffff166379cc679033836040518363ffffffff167c0100000000000000000000000000000000000000000000000000000000028152600401808373ffffffffffffffffffffffffffffffffffffffff1673ffffffffffffffffffffffffffffffffffffffff16815260200182815260200192505050600060405180830381600087803b151561142757600080fd5b6102c65a03f1151561143857600080fd5b5050503373ffffffffffffffffffffffffffffffffffffffff166108fc839081150290604051600060405180830381858888f19350505050151561147b57600080fd5b5050565b600060149054906101000a900460ff1681565b6000809054906101000a900473ffffffffffffffffffffffffffffffffffffffff1673ffffffffffffffffffffffffffffffffffffffff163373ffffffffffffffffffffffffffffffffffffffff161415156114ed57600080fd5b600073ffffffffffffffffffffffffffffffffffffffff168273ffffffffffffffffffffffffffffffffffffffff161415151561152957600080fd5b61153e8160115461214390919063ffffffff16565b601181905550601460009054906101000a900473ffffffffffffffffffffffffffffffffffffffff1673ffffffffffffffffffffffffffffffffffffffff1663f501d8b883836040518363ffffffff167c0100000000000000000000000000000000000000000000000000000000028152600401808373ffffffffffffffffffffffffffffffffffffffff1673ffffffffffffffffffffffffffffffffffffffff16815260200182815260200192505050600060405180830381600087803b151561160857600080fd5b6102c65a03f1151561161957600080fd5b5050505050565b60075481565b600a5481565b60045481565b6000809054906101000a900473ffffffffffffffffffffffffffffffffffffffff1673ffffffffffffffffffffffffffffffffffffffff163373ffffffffffffffffffffffffffffffffffffffff1614151561168d57600080fd5b428111801561169d575060055481115b15156116a857600080fd5b8060068190555050565b60055481565b6000809054906101000a900473ffffffffffffffffffffffffffffffffffffffff1673ffffffffffffffffffffffffffffffffffffffff163373ffffffffffffffffffffffffffffffffffffffff1614151561171357600080fd5b600060149054906101000a900460ff1615151561172f57600080fd5b6001600060146101000a81548160ff0219169083151502179055507f6985a02210a168e66602d3235cb6db0e70f92b3ba4d376a33c0f3d9434bff62560405160405180910390a1565b60105481565b60006002546009541015905090565b6000809054906101000a900473ffffffffffffffffffffffffffffffffffffffff1681565b6000809054906101000a900473ffffffffffffffffffffffffffffffffffffffff1673ffffffffffffffffffffffffffffffffffffffff163373ffffffffffffffffffffffffffffffffffffffff1614151561180d57600080fd5b60008111151561181c57600080fd5b8060088190555050565b6000809054906101000a900473ffffffffffffffffffffffffffffffffffffffff1673ffffffffffffffffffffffffffffffffffffffff163373ffffffffffffffffffffffffffffffffffffffff1614151561188157600080fd5b600073ffffffffffffffffffffffffffffffffffffffff168173ffffffffffffffffffffffffffffffffffffffff16141515156118bd57600080fd5b80601360006101000a81548173ffffffffffffffffffffffffffffffffffffffff021916908373ffffffffffffffffffffffffffffffffffffffff16021790555050565b600b5481565b6006544211151561191757600080fd5b6000809054906101000a900473ffffffffffffffffffffffffffffffffffffffff1673ffffffffffffffffffffffffffffffffffffffff163373ffffffffffffffffffffffffffffffffffffffff1614151561197257600080fd5b601460009054906101000a900473ffffffffffffffffffffffffffffffffffffffff1673ffffffffffffffffffffffffffffffffffffffff16635fe4631c6040518163ffffffff167c0100000000000000000000000000000000000000000000000000000000028152600401600060405180830381600087803b15156119f757600080fd5b6102c65a03f11515611a0857600080fd5b5050506000601181905550565b600c5481565b600f5481565b6000809054906101000a900473ffffffffffffffffffffffffffffffffffffffff1673ffffffffffffffffffffffffffffffffffffffff163373ffffffffffffffffffffffffffffffffffffffff16141515611a7c57600080fd5b4281111515611a8a57600080fd5b8060058190555050565b60035481565b60085481565b6000809054906101000a900473ffffffffffffffffffffffffffffffffffffffff1673ffffffffffffffffffffffffffffffffffffffff163373ffffffffffffffffffffffffffffffffffffffff16141515611afb57600080fd5b600081111515611b0a57600080fd5b8060078190555050565b6000809054906101000a900473ffffffffffffffffffffffffffffffffffffffff1673ffffffffffffffffffffffffffffffffffffffff163373ffffffffffffffffffffffffffffffffffffffff16141515611b6f57600080fd5b60045442111515611b7f57600080fd5b611b8761177e565b1515611b9257600080fd5b601360009054906101000a900473ffffffffffffffffffffffffffffffffffffffff1673ffffffffffffffffffffffffffffffffffffffff166108fc600b549081150290604051600060405180830381858888f193505050501515611bf657600080fd5b565b6000809054906101000a900473ffffffffffffffffffffffffffffffffffffffff1673ffffffffffffffffffffffffffffffffffffffff163373ffffffffffffffffffffffffffffffffffffffff16141515611c5357600080fd5b600073ffffffffffffffffffffffffffffffffffffffff168173ffffffffffffffffffffffffffffffffffffffff1614151515611c8f57600080fd5b8073ffffffffffffffffffffffffffffffffffffffff166000809054906101000a900473ffffffffffffffffffffffffffffffffffffffff1673ffffffffffffffffffffffffffffffffffffffff167f8be0079c531659141344cd1fd0a4f28419497f9722a3daafe3b4186f6b6457e060405160405180910390a3806000806101000a81548173ffffffffffffffffffffffffffffffffffffffff021916908373ffffffffffffffffffffffffffffffffffffffff16021790555050565b6000809054906101000a900473ffffffffffffffffffffffffffffffffffffffff1673ffffffffffffffffffffffffffffffffffffffff163373ffffffffffffffffffffffffffffffffffffffff16141515611da857600080fd5b4281111515611db657600080fd5b8060038190555050565b601460009054906101000a900473ffffffffffffffffffffffffffffffffffffffff1681565b6000808284019050838110151515611dfa57fe5b8091505092915050565b611e5681601260008573ffffffffffffffffffffffffffffffffffffffff1673ffffffffffffffffffffffffffffffffffffffff16815260200190815260200160002054611de690919063ffffffff16565b601260008473ffffffffffffffffffffffffffffffffffffffff1673ffffffffffffffffffffffffffffffffffffffff168152602001908152602001600020819055505050565b60006005544210158015611ec75750611ec3600d54600554611de690919063ffffffff16565b4211155b15611ed557600f9050611f7c565b6005544210158015611efd5750611ef9600e54600554611de690919063ffffffff16565b4211155b15611f0b57600a9050611f7c565b6005544210158015611f335750611f2f600f54600554611de690919063ffffffff16565b4211155b15611f415760079050611f7c565b6005544210158015611f695750611f65601054600554611de690919063ffffffff16565b4211155b15611f775760059050611f7c565b600090505b90565b6000806000841415611f945760009150611fb3565b8284029050828482811515611fa557fe5b04141515611faf57fe5b8091505b5092915050565b6000808284811515611fc857fe5b0490508091505092915050565b6000680ad78ebc5ac62000008210151561202b576120246064612016606e61200860085487611f7f90919063ffffffff16565b611f7f90919063ffffffff16565b611fba90919063ffffffff16565b905061213e565b6802b5e3af16b18800008210151561207f57612078606461206a606b61205c60085487611f7f90919063ffffffff16565b611f7f90919063ffffffff16565b611fba90919063ffffffff16565b905061213e565b6801158e460913d00000821015156120d3576120cc60646120be60696120b060085487611f7f90919063ffffffff16565b611f7f90919063ffffffff16565b611fba90919063ffffffff16565b905061213e565b674563918244f40000821015156121265761211f6064612111606761210360085487611f7f90919063ffffffff16565b611f7f90919063ffffffff16565b611fba90919063ffffffff16565b905061213e565b61213b60085483611f7f90919063ffffffff16565b90505b919050565b600082821115151561215157fe5b8183039050929150505600a165627a7a72305820706584ada3a8fa07014f16ffadc3530afb7c7f232c2d17ef3ea2d354958986900029606060405260008060146101000a81548160ff02191690831515021790555034156200002a57600080fd5b6040516020806200233383398101604052808051906020019091905050336000806101000a81548173ffffffffffffffffffffffffffffffffffffffff021916908373ffffffffffffffffffffffffffffffffffffffff160217905550600073ffffffffffffffffffffffffffffffffffffffff168173ffffffffffffffffffffffffffffffffffffffff1614151515620000c457600080fd5b80600460006101000a81548173ffffffffffffffffffffffffffffffffffffffff021916908373ffffffffffffffffffffffffffffffffffffffff160217905550620001336012600a0a62989680026002546200027b6401000000000262001f7d179091906401000000009004565b600281905550620001a46012600a0a6298968002600160008473ffffffffffffffffffffffffffffffffffffffff1673ffffffffffffffffffffffffffffffffffffffff168152602001908152602001600020546200027b6401000000000262001f7d179091906401000000009004565b600160008373ffffffffffffffffffffffffffffffffffffffff1673ffffffffffffffffffffffffffffffffffffffff168152602001908152602001600020819055508073ffffffffffffffffffffffffffffffffffffffff16600073ffffffffffffffffffffffffffffffffffffffff167fddf252ad1be2c89b69c2b068fc378daa952ba7f163c4a11628f55a4df523b3ef6012600a0a62989680026040518082815260200191505060405180910390a3620002746200029a640100000000026200131e176401000000009004565b506200035c565b60008082840190508381101515156200029057fe5b8091505092915050565b6000809054906101000a900473ffffffffffffffffffffffffffffffffffffffff1673ffffffffffffffffffffffffffffffffffffffff163373ffffffffffffffffffffffffffffffffffffffff16141515620002f657600080fd5b600060149054906101000a900460ff161515156200031357600080fd5b6001600060146101000a81548160ff0219169083151502179055507f6985a02210a168e66602d3235cb6db0e70f92b3ba4d376a33c0f3d9434bff62560405160405180910390a1565b611fc7806200036c6000396000f300606060405260043610610128576000357c0100000000000000000000000000000000000000000000000000000000900463ffffffff16806306fdde031461012d578063095ea7b3146101bb5780630f2e757b1461021557806318160ddd1461026a57806323b872dd14610293578063313ce5671461030c5780633f4ba83a1461033557806342966c681461034a5780635c975abb1461036d5780635fe4631c1461039a57806366188463146103af57806370a082311461040957806379cc6790146104565780638456cb59146104985780638da5cb5b146104ad57806395d89b4114610502578063a9059cbb14610590578063c04fcad8146105ea578063d73dd62314610613578063dd62ed3e1461066d578063f2fde38b146106d9578063f501d8b814610712575b600080fd5b341561013857600080fd5b610140610754565b6040518080602001828103825283818151815260200191508051906020019080838360005b83811015610180578082015181840152602081019050610165565b50505050905090810190601f1680156101ad5780820380516001836020036101000a031916815260200191505b509250505060405180910390f35b34156101c657600080fd5b6101fb600480803573ffffffffffffffffffffffffffffffffffffffff1690602001909190803590602001909190505061078d565b604051808215151515815260200191505060405180910390f35b341561022057600080fd5b61022861087f565b604051808273ffffffffffffffffffffffffffffffffffffffff1673ffffffffffffffffffffffffffffffffffffffff16815260200191505060405180910390f35b341561027557600080fd5b61027d6108a5565b6040518082815260200191505060405180910390f35b341561029e57600080fd5b6102f2600480803573ffffffffffffffffffffffffffffffffffffffff1690602001909190803573ffffffffffffffffffffffffffffffffffffffff169060200190919080359060200190919050506108af565b604051808215151515815260200191505060405180910390f35b341561031757600080fd5b61031f610958565b6040518082815260200191505060405180910390f35b341561034057600080fd5b61034861095d565b005b341561035557600080fd5b61036b6004808035906020019091905050610a1b565b005b341561037857600080fd5b610380610bd6565b604051808215151515815260200191505060405180910390f35b34156103a557600080fd5b6103ad610be9565b005b34156103ba57600080fd5b6103ef600480803573ffffffffffffffffffffffffffffffffffffffff16906020019091908035906020019091905050610ddb565b604051808215151515815260200191505060405180910390f35b341561041457600080fd5b610440600480803573ffffffffffffffffffffffffffffffffffffffff1690602001909190505061106c565b6040518082815260200191505060405180910390f35b341561046157600080fd5b610496600480803573ffffffffffffffffffffffffffffffffffffffff169060200190919080359060200190919050506110b5565b005b34156104a357600080fd5b6104ab61131e565b005b34156104b857600080fd5b6104c06113de565b604051808273ffffffffffffffffffffffffffffffffffffffff1673ffffffffffffffffffffffffffffffffffffffff16815260200191505060405180910390f35b341561050d57600080fd5b610515611403565b6040518080602001828103825283818151815260200191508051906020019080838360005b8381101561055557808201518184015260208101905061053a565b50505050905090810190601f1680156105825780820380516001836020036101000a031916815260200191505b509250505060405180910390f35b341561059b57600080fd5b6105d0600480803573ffffffffffffffffffffffffffffffffffffffff1690602001909190803590602001909190505061143c565b604051808215151515815260200191505060405180910390f35b34156105f557600080fd5b6105fd6114f5565b6040518082815260200191505060405180910390f35b341561061e57600080fd5b610653600480803573ffffffffffffffffffffffffffffffffffffffff16906020019091908035906020019091905050611502565b604051808215151515815260200191505060405180910390f35b341561067857600080fd5b6106c3600480803573ffffffffffffffffffffffffffffffffffffffff1690602001909190803573ffffffffffffffffffffffffffffffffffffffff169060200190919050506116fe565b6040518082815260200191505060405180910390f35b34156106e457600080fd5b610710600480803573ffffffffffffffffffffffffffffffffffffffff16906020019091905050611785565b005b341561071d57600080fd5b610752600480803573ffffffffffffffffffffffffffffffffffffffff169060200190919080359060200190919050506118da565b005b6040805190810160405280600b81526020017f53696d706c65546f6b656e00000000000000000000000000000000000000000081525081565b600081600360003373ffffffffffffffffffffffffffffffffffffffff1673ffffffffffffffffffffffffffffffffffffffff16815260200190815260200160002060008573ffffffffffffffffffffffffffffffffffffffff1673ffffffffffffffffffffffffffffffffffffffff168152602001908152602001600020819055508273ffffffffffffffffffffffffffffffffffffffff163373ffffffffffffffffffffffffffffffffffffffff167f8c5be1e5ebec7d5bd14f71427d1e84f3dd0314c0f7b2291e5b200ac8c7c3b925846040518082815260200191505060405180910390a36001905092915050565b600460009054906101000a900473ffffffffffffffffffffffffffffffffffffffff1681565b6000600254905090565b60008060149054906101000a900460ff161515156108cc57600080fd5b600073ffffffffffffffffffffffffffffffffffffffff168473ffffffffffffffffffffffffffffffffffffffff161415151561090857600080fd5b600073ffffffffffffffffffffffffffffffffffffffff168373ffffffffffffffffffffffffffffffffffffffff161415151561094457600080fd5b61094f848484611981565b90509392505050565b601281565b6000809054906101000a900473ffffffffffffffffffffffffffffffffffffffff1673ffffffffffffffffffffffffffffffffffffffff163373ffffffffffffffffffffffffffffffffffffffff161415156109b857600080fd5b600060149054906101000a900460ff1615156109d357600080fd5b60008060146101000a81548160ff0219169083151502179055507f7805862f689e2f13df9f062ff482ad3ad112aca9e0847911ed832e158c525b3360405160405180910390a1565b6000600160003373ffffffffffffffffffffffffffffffffffffffff1673ffffffffffffffffffffffffffffffffffffffff168152602001908152602001600020548211151515610a6b57600080fd5b339050610ac082600160008473ffffffffffffffffffffffffffffffffffffffff1673ffffffffffffffffffffffffffffffffffffffff16815260200190815260200160002054611d4090919063ffffffff16565b600160008373ffffffffffffffffffffffffffffffffffffffff1673ffffffffffffffffffffffffffffffffffffffff16815260200190815260200160002081905550610b1882600254611d4090919063ffffffff16565b6002819055508073ffffffffffffffffffffffffffffffffffffffff167fcc16f5dbb4873280815c1ee09dbd06736cffcc184412cf7a71a0fdb75d397ca5836040518082815260200191505060405180910390a2600073ffffffffffffffffffffffffffffffffffffffff168173ffffffffffffffffffffffffffffffffffffffff167fddf252ad1be2c89b69c2b068fc378daa952ba7f163c4a11628f55a4df523b3ef846040518082815260200191505060405180910390a35050565b600060149054906101000a900460ff1681565b6000600460009054906101000a900473ffffffffffffffffffffffffffffffffffffffff1673ffffffffffffffffffffffffffffffffffffffff163373ffffffffffffffffffffffffffffffffffffffff16141515610c4757600080fd5b610c72600460009054906101000a900473ffffffffffffffffffffffffffffffffffffffff1661106c565b9050610ce88160016000600460009054906101000a900473ffffffffffffffffffffffffffffffffffffffff1673ffffffffffffffffffffffffffffffffffffffff1673ffffffffffffffffffffffffffffffffffffffff16815260200190815260200160002054611d4090919063ffffffff16565b60016000600460009054906101000a900473ffffffffffffffffffffffffffffffffffffffff1673ffffffffffffffffffffffffffffffffffffffff1673ffffffffffffffffffffffffffffffffffffffff16815260200190815260200160002081905550610d6281600254611d4090919063ffffffff16565b600281905550600460009054906101000a900473ffffffffffffffffffffffffffffffffffffffff1673ffffffffffffffffffffffffffffffffffffffff167fcc16f5dbb4873280815c1ee09dbd06736cffcc184412cf7a71a0fdb75d397ca5826040518082815260200191505060405180910390a250565b600080600360003373ffffffffffffffffffffffffffffffffffffffff1673ffffffffffffffffffffffffffffffffffffffff16815260200190815260200160002060008573ffffffffffffffffffffffffffffffffffffffff1673ffffffffffffffffffffffffffffffffffffffff16815260200190815260200160002054905080831115610eec576000600360003373ffffffffffffffffffffffffffffffffffffffff1673ffffffffffffffffffffffffffffffffffffffff16815260200190815260200160002060008673ffffffffffffffffffffffffffffffffffffffff1673ffffffffffffffffffffffffffffffffffffffff16815260200190815260200160002081905550610f80565b610eff8382611d4090919063ffffffff16565b600360003373ffffffffffffffffffffffffffffffffffffffff1673ffffffffffffffffffffffffffffffffffffffff16815260200190815260200160002060008673ffffffffffffffffffffffffffffffffffffffff1673ffffffffffffffffffffffffffffffffffffffff168152602001908152602001600020819055505b8373ffffffffffffffffffffffffffffffffffffffff163373ffffffffffffffffffffffffffffffffffffffff167f8c5be1e5ebec7d5bd14f71427d1e84f3dd0314c0f7b2291e5b200ac8c7c3b925600360003373ffffffffffffffffffffffffffffffffffffffff1673ffffffffffffffffffffffffffffffffffffffff16815260200190815260200160002060008873ffffffffffffffffffffffffffffffffffffffff1673ffffffffffffffffffffffffffffffffffffffff168152602001908152602001600020546040518082815260200191505060405180910390a3600191505092915050565b6000600160008373ffffffffffffffffffffffffffffffffffffffff1673ffffffffffffffffffffffffffffffffffffffff168152602001908152602001600020549050919050565b600160003373ffffffffffffffffffffffffffffffffffffffff1673ffffffffffffffffffffffffffffffffffffffff16815260200190815260200160002054811115151561110357600080fd5b600460009054906101000a900473ffffffffffffffffffffffffffffffffffffffff1673ffffffffffffffffffffffffffffffffffffffff163373ffffffffffffffffffffffffffffffffffffffff1614806111ab57506000809054906101000a900473ffffffffffffffffffffffffffffffffffffffff1673ffffffffffffffffffffffffffffffffffffffff163373ffffffffffffffffffffffffffffffffffffffff16145b15156111b657600080fd5b61120881600160008573ffffffffffffffffffffffffffffffffffffffff1673ffffffffffffffffffffffffffffffffffffffff16815260200190815260200160002054611d4090919063ffffffff16565b600160008473ffffffffffffffffffffffffffffffffffffffff1673ffffffffffffffffffffffffffffffffffffffff1681526020019081526020016000208190555061126081600254611d4090919063ffffffff16565b6002819055508173ffffffffffffffffffffffffffffffffffffffff167fcc16f5dbb4873280815c1ee09dbd06736cffcc184412cf7a71a0fdb75d397ca5826040518082815260200191505060405180910390a2600073ffffffffffffffffffffffffffffffffffffffff168273ffffffffffffffffffffffffffffffffffffffff167fddf252ad1be2c89b69c2b068fc378daa952ba7f163c4a11628f55a4df523b3ef836040518082815260200191505060405180910390a35050565b6000809054906101000a900473ffffffffffffffffffffffffffffffffffffffff1673ffffffffffffffffffffffffffffffffffffffff163373ffffffffffffffffffffffffffffffffffffffff1614151561137957600080fd5b600060149054906101000a900460ff1615151561139557600080fd5b6001600060146101000a81548160ff0219169083151502179055507f6985a02210a168e66602d3235cb6db0e70f92b3ba4d376a33c0f3d9434bff62560405160405180910390a1565b6000809054906101000a900473ffffffffffffffffffffffffffffffffffffffff1681565b6040805190810160405280600281526020017f535400000000000000000000000000000000000000000000000000000000000081525081565b60008060149054906101000a900460ff1615151561145957600080fd5b600073ffffffffffffffffffffffffffffffffffffffff168373ffffffffffffffffffffffffffffffffffffffff161415151561149557600080fd5b600160003373ffffffffffffffffffffffffffffffffffffffff1673ffffffffffffffffffffffffffffffffffffffff1681526020019081526020016000205482111515156114e357600080fd5b6114ed8383611d59565b905092915050565b6012600a0a629896800281565b600061159382600360003373ffffffffffffffffffffffffffffffffffffffff1673ffffffffffffffffffffffffffffffffffffffff16815260200190815260200160002060008673ffffffffffffffffffffffffffffffffffffffff1673ffffffffffffffffffffffffffffffffffffffff16815260200190815260200160002054611f7d90919063ffffffff16565b600360003373ffffffffffffffffffffffffffffffffffffffff1673ffffffffffffffffffffffffffffffffffffffff16815260200190815260200160002060008573ffffffffffffffffffffffffffffffffffffffff1673ffffffffffffffffffffffffffffffffffffffff168152602001908152602001600020819055508273ffffffffffffffffffffffffffffffffffffffff163373ffffffffffffffffffffffffffffffffffffffff167f8c5be1e5ebec7d5bd14f71427d1e84f3dd0314c0f7b2291e5b200ac8c7c3b925600360003373ffffffffffffffffffffffffffffffffffffffff1673ffffffffffffffffffffffffffffffffffffffff16815260200190815260200160002060008773ffffffffffffffffffffffffffffffffffffffff1673ffffffffffffffffffffffffffffffffffffffff168152602001908152602001600020546040518082815260200191505060405180910390a36001905092915050565b6000600360008473ffffffffffffffffffffffffffffffffffffffff1673ffffffffffffffffffffffffffffffffffffffff16815260200190815260200160002060008373ffffffffffffffffffffffffffffffffffffffff1673ffffffffffffffffffffffffffffffffffffffff16815260200190815260200160002054905092915050565b6000809054906101000a900473ffffffffffffffffffffffffffffffffffffffff1673ffffffffffffffffffffffffffffffffffffffff163373ffffffffffffffffffffffffffffffffffffffff161415156117e057600080fd5b600073ffffffffffffffffffffffffffffffffffffffff168173ffffffffffffffffffffffffffffffffffffffff161415151561181c57600080fd5b8073ffffffffffffffffffffffffffffffffffffffff166000809054906101000a900473ffffffffffffffffffffffffffffffffffffffff1673ffffffffffffffffffffffffffffffffffffffff167f8be0079c531659141344cd1fd0a4f28419497f9722a3daafe3b4186f6b6457e060405160405180910390a3806000806101000a81548173ffffffffffffffffffffffffffffffffffffffff021916908373ffffffffffffffffffffffffffffffffffffffff16021790555050565b600460009054906101000a900473ffffffffffffffffffffffffffffffffffffffff1673ffffffffffffffffffffffffffffffffffffffff163373ffffffffffffffffffffffffffffffffffffffff1614151561193657600080fd5b600073ffffffffffffffffffffffffffffffffffffffff168273ffffffffffffffffffffffffffffffffffffffff161415151561197257600080fd5b61197c8282611d59565b505050565b60008073ffffffffffffffffffffffffffffffffffffffff168373ffffffffffffffffffffffffffffffffffffffff16141515156119be57600080fd5b600160008573ffffffffffffffffffffffffffffffffffffffff1673ffffffffffffffffffffffffffffffffffffffff168152602001908152602001600020548211151515611a0c57600080fd5b600360008573ffffffffffffffffffffffffffffffffffffffff1673ffffffffffffffffffffffffffffffffffffffff16815260200190815260200160002060003373ffffffffffffffffffffffffffffffffffffffff1673ffffffffffffffffffffffffffffffffffffffff168152602001908152602001600020548211151515611a9757600080fd5b611ae982600160008773ffffffffffffffffffffffffffffffffffffffff1673ffffffffffffffffffffffffffffffffffffffff16815260200190815260200160002054611d4090919063ffffffff16565b600160008673ffffffffffffffffffffffffffffffffffffffff1673ffffffffffffffffffffffffffffffffffffffff16815260200190815260200160002081905550611b7e82600160008673ffffffffffffffffffffffffffffffffffffffff1673ffffffffffffffffffffffffffffffffffffffff16815260200190815260200160002054611f7d90919063ffffffff16565b600160008573ffffffffffffffffffffffffffffffffffffffff1673ffffffffffffffffffffffffffffffffffffffff16815260200190815260200160002081905550611c5082600360008773ffffffffffffffffffffffffffffffffffffffff1673ffffffffffffffffffffffffffffffffffffffff16815260200190815260200160002060003373ffffffffffffffffffffffffffffffffffffffff1673ffffffffffffffffffffffffffffffffffffffff16815260200190815260200160002054611d4090919063ffffffff16565b600360008673ffffffffffffffffffffffffffffffffffffffff1673ffffffffffffffffffffffffffffffffffffffff16815260200190815260200160002060003373ffffffffffffffffffffffffffffffffffffffff1673ffffffffffffffffffffffffffffffffffffffff168152602001908152602001600020819055508273ffffffffffffffffffffffffffffffffffffffff168473ffffffffffffffffffffffffffffffffffffffff167fddf252ad1be2c89b69c2b068fc378daa952ba7f163c4a11628f55a4df523b3ef846040518082815260200191505060405180910390a3600190509392505050565b6000828211151515611d4e57fe5b818303905092915050565b60008073ffffffffffffffffffffffffffffffffffffffff168373ffffffffffffffffffffffffffffffffffffffff1614151515611d9657600080fd5b600160003373ffffffffffffffffffffffffffffffffffffffff1673ffffffffffffffffffffffffffffffffffffffff168152602001908152602001600020548211151515611de457600080fd5b611e3682600160003373ffffffffffffffffffffffffffffffffffffffff1673ffffffffffffffffffffffffffffffffffffffff16815260200190815260200160002054611d4090919063ffffffff16565b600160003373ffffffffffffffffffffffffffffffffffffffff1673ffffffffffffffffffffffffffffffffffffffff16815260200190815260200160002081905550611ecb82600160008673ffffffffffffffffffffffffffffffffffffffff1673ffffffffffffffffffffffffffffffffffffffff16815260200190815260200160002054611f7d90919063ffffffff16565b600160008573ffffffffffffffffffffffffffffffffffffffff1673ffffffffffffffffffffffffffffffffffffffff168152602001908152602001600020819055508273ffffffffffffffffffffffffffffffffffffffff163373ffffffffffffffffffffffffffffffffffffffff167fddf252ad1be2c89b69c2b068fc378daa952ba7f163c4a11628f55a4df523b3ef846040518082815260200191505060405180910390a36001905092915050565b6000808284019050838110151515611f9157fe5b80915050929150505600a165627a7a723058201b79695f4d97e9062b875ac35f4f4916fb8f2c543618926f73aab799080a57b4002960606040526000600255336000806101000a81548173ffffffffffffffffffffffffffffffffffffffff021916908373ffffffffffffffffffffffffffffffffffffffff16021790555061062a806100586000396000f300606060405260043610610078576000357c0100000000000000000000000000000000000000000000000000000000900463ffffffff16806353f2b7cd1461007d5780636f9170f6146100b65780638da5cb5b14610107578063cfe684f51461015c578063efeb5f1f14610185578063f2fde38b146101be575b600080fd5b341561008857600080fd5b6100b4600480803573ffffffffffffffffffffffffffffffffffffffff169060200190919050506101f7565b005b34156100c157600080fd5b6100ed600480803573ffffffffffffffffffffffffffffffffffffffff16906020019091905050610310565b604051808215151515815260200191505060405180910390f35b341561011257600080fd5b61011a610366565b604051808273ffffffffffffffffffffffffffffffffffffffff1673ffffffffffffffffffffffffffffffffffffffff16815260200191505060405180910390f35b341561016757600080fd5b61016f61038b565b6040518082815260200191505060405180910390f35b341561019057600080fd5b6101bc600480803573ffffffffffffffffffffffffffffffffffffffff16906020019091905050610391565b005b34156101c957600080fd5b6101f5600480803573ffffffffffffffffffffffffffffffffffffffff169060200190919050506104a9565b005b6000809054906101000a900473ffffffffffffffffffffffffffffffffffffffff1673ffffffffffffffffffffffffffffffffffffffff163373ffffffffffffffffffffffffffffffffffffffff1614151561025257600080fd5b600073ffffffffffffffffffffffffffffffffffffffff168173ffffffffffffffffffffffffffffffffffffffff161415151561028e57600080fd5b61029781610310565b15156102a257600080fd5b6000600160008373ffffffffffffffffffffffffffffffffffffffff1673ffffffffffffffffffffffffffffffffffffffff16815260200190815260200160002060006101000a81548160ff0219169083151502179055506002600081548092919060019003919050555050565b6000600160008373ffffffffffffffffffffffffffffffffffffffff1673ffffffffffffffffffffffffffffffffffffffff16815260200190815260200160002060009054906101000a900460ff169050919050565b6000809054906101000a900473ffffffffffffffffffffffffffffffffffffffff1681565b60025481565b6000809054906101000a900473ffffffffffffffffffffffffffffffffffffffff1673ffffffffffffffffffffffffffffffffffffffff163373ffffffffffffffffffffffffffffffffffffffff161415156103ec57600080fd5b600073ffffffffffffffffffffffffffffffffffffffff168173ffffffffffffffffffffffffffffffffffffffff161415151561042857600080fd5b61043181610310565b15151561043d57600080fd5b60018060008373ffffffffffffffffffffffffffffffffffffffff1673ffffffffffffffffffffffffffffffffffffffff16815260200190815260200160002060006101000a81548160ff02191690831515021790555060026000815480929190600101919050555050565b6000809054906101000a900473ffffffffffffffffffffffffffffffffffffffff1673ffffffffffffffffffffffffffffffffffffffff163373ffffffffffffffffffffffffffffffffffffffff1614151561050457600080fd5b600073ffffffffffffffffffffffffffffffffffffffff168173ffffffffffffffffffffffffffffffffffffffff161415151561054057600080fd5b8073ffffffffffffffffffffffffffffffffffffffff166000809054906101000a900473ffffffffffffffffffffffffffffffffffffffff1673ffffffffffffffffffffffffffffffffffffffff167f8be0079c531659141344cd1fd0a4f28419497f9722a3daafe3b4186f6b6457e060405160405180910390a3806000806101000a81548173ffffffffffffffffffffffffffffffffffffffff021916908373ffffffffffffffffffffffffffffffffffffffff160217905550505600a165627a7a72305820cd01dbc4acbeb28f1ba2bba3e74266b46dd49e0dbc10a64f663666eff72f858a0029",
  "source": "pragma solidity ^0.4.19;\n\n\n\n/**\n * @title SafeMath\n * @dev Math operations with safety checks that throw on error\n */\nlibrary SafeMath {\n\n  /**\n  * @dev Multiplies two numbers, throws on overflow.\n  */\n  function mul(uint256 a, uint256 b) internal pure returns (uint256) {\n    if (a == 0) {\n      return 0;\n    }\n    uint256 c = a * b;\n    assert(c / a == b);\n    return c;\n  }\n\n  /**\n  * @dev Integer division of two numbers, truncating the quotient.\n  */\n  function div(uint256 a, uint256 b) internal pure returns (uint256) {\n    // assert(b > 0); // Solidity automatically throws when dividing by 0\n    uint256 c = a / b;\n    // assert(a == b * c + a % b); // There is no case in which this doesn't hold\n    return c;\n  }\n\n  /**\n  * @dev Substracts two numbers, throws on overflow (i.e. if subtrahend is greater than minuend).\n  */\n  function sub(uint256 a, uint256 b) internal pure returns (uint256) {\n    assert(b <= a);\n    return a - b;\n  }\n\n  /**\n  * @dev Adds two numbers, throws on overflow.\n  */\n  function add(uint256 a, uint256 b) internal pure returns (uint256) {\n    uint256 c = a + b;\n    assert(c >= a);\n    return c;\n  }\n}\n\n\n\n/**\n * @title ERC20Basic\n * @dev Simpler version of ERC20 interface\n * @dev see https://github.com/ethereum/EIPs/issues/179\n */\ncontract ERC20Basic {\n  function totalSupply() public view returns (uint256);\n  function balanceOf(address who) public view returns (uint256);\n  function transfer(address to, uint256 value) public returns (bool);\n  event Transfer(address indexed from, address indexed to, uint256 value);\n}\n\n\n\n/**\n * @title ERC20 interface\n * @dev see https://github.com/ethereum/EIPs/issues/20\n */\ncontract ERC20 is ERC20Basic {\n  function allowance(address owner, address spender) public view returns (uint256);\n  function transferFrom(address from, address to, uint256 value) public returns (bool);\n  function approve(address spender, uint256 value) public returns (bool);\n  event Approval(address indexed owner, address indexed spender, uint256 value);\n}\n\n\n\n/**\n * @title Basic token\n * @dev Basic version of StandardToken, with no allowances.\n */\ncontract BasicToken is ERC20Basic {\n  using SafeMath for uint256;\n\n  mapping(address => uint256) balances;\n\n  uint256 totalSupply_;\n\n  /**\n  * @dev total number of tokens in existence\n  */\n  function totalSupply() public view returns (uint256) {\n    return totalSupply_;\n  }\n\n  /**\n  * @dev transfer token for a specified address\n  * @param _to The address to transfer to.\n  * @param _value The amount to be transferred.\n  */\n  function transfer(address _to, uint256 _value) public returns (bool) {\n    require(_to != address(0));\n    require(_value <= balances[msg.sender]);\n\n    // SafeMath.sub will throw if there is not enough balance.\n    balances[msg.sender] = balances[msg.sender].sub(_value);\n    balances[_to] = balances[_to].add(_value);\n    Transfer(msg.sender, _to, _value);\n    return true;\n  }\n\n  /**\n  * @dev Gets the balance of the specified address.\n  * @param _owner The address to query the the balance of.\n  * @return An uint256 representing the amount owned by the passed address.\n  */\n  function balanceOf(address _owner) public view returns (uint256 balance) {\n    return balances[_owner];\n  }\n\n}\n\n\n\n/**\n * @title Standard ERC20 token\n *\n * @dev Implementation of the basic standard token.\n * @dev https://github.com/ethereum/EIPs/issues/20\n * @dev Based on code by FirstBlood: https://github.com/Firstbloodio/token/blob/master/smart_contract/FirstBloodToken.sol\n */\ncontract StandardToken is ERC20, BasicToken {\n\n  mapping (address => mapping (address => uint256)) internal allowed;\n\n\n  /**\n   * @dev Transfer tokens from one address to another\n   * @param _from address The address which you want to send tokens from\n   * @param _to address The address which you want to transfer to\n   * @param _value uint256 the amount of tokens to be transferred\n   */\n  function transferFrom(address _from, address _to, uint256 _value) public returns (bool) {\n    require(_to != address(0));\n    require(_value <= balances[_from]);\n    require(_value <= allowed[_from][msg.sender]);\n\n    balances[_from] = balances[_from].sub(_value);\n    balances[_to] = balances[_to].add(_value);\n    allowed[_from][msg.sender] = allowed[_from][msg.sender].sub(_value);\n    Transfer(_from, _to, _value);\n    return true;\n  }\n\n  /**\n   * @dev Approve the passed address to spend the specified amount of tokens on behalf of msg.sender.\n   *\n   * Beware that changing an allowance with this method brings the risk that someone may use both the old\n   * and the new allowance by unfortunate transaction ordering. One possible solution to mitigate this\n   * race condition is to first reduce the spender's allowance to 0 and set the desired value afterwards:\n   * https://github.com/ethereum/EIPs/issues/20#issuecomment-263524729\n   * @param _spender The address which will spend the funds.\n   * @param _value The amount of tokens to be spent.\n   */\n  function approve(address _spender, uint256 _value) public returns (bool) {\n    allowed[msg.sender][_spender] = _value;\n    Approval(msg.sender, _spender, _value);\n    return true;\n  }\n\n  /**\n   * @dev Function to check the amount of tokens that an owner allowed to a spender.\n   * @param _owner address The address which owns the funds.\n   * @param _spender address The address which will spend the funds.\n   * @return A uint256 specifying the amount of tokens still available for the spender.\n   */\n  function allowance(address _owner, address _spender) public view returns (uint256) {\n    return allowed[_owner][_spender];\n  }\n\n  /**\n   * @dev Increase the amount of tokens that an owner allowed to a spender.\n   *\n   * approve should be called when allowed[_spender] == 0. To increment\n   * allowed value is better to use this function to avoid 2 calls (and wait until\n   * the first transaction is mined)\n   * From MonolithDAO Token.sol\n   * @param _spender The address which will spend the funds.\n   * @param _addedValue The amount of tokens to increase the allowance by.\n   */\n  function increaseApproval(address _spender, uint _addedValue) public returns (bool) {\n    allowed[msg.sender][_spender] = allowed[msg.sender][_spender].add(_addedValue);\n    Approval(msg.sender, _spender, allowed[msg.sender][_spender]);\n    return true;\n  }\n\n  /**\n   * @dev Decrease the amount of tokens that an owner allowed to a spender.\n   *\n   * approve should be called when allowed[_spender] == 0. To decrement\n   * allowed value is better to use this function to avoid 2 calls (and wait until\n   * the first transaction is mined)\n   * From MonolithDAO Token.sol\n   * @param _spender The address which will spend the funds.\n   * @param _subtractedValue The amount of tokens to decrease the allowance by.\n   */\n  function decreaseApproval(address _spender, uint _subtractedValue) public returns (bool) {\n    uint oldValue = allowed[msg.sender][_spender];\n    if (_subtractedValue > oldValue) {\n      allowed[msg.sender][_spender] = 0;\n    } else {\n      allowed[msg.sender][_spender] = oldValue.sub(_subtractedValue);\n    }\n    Approval(msg.sender, _spender, allowed[msg.sender][_spender]);\n    return true;\n  }\n\n}\n\n\n\n/**\n * @title Ownable\n * @dev The Ownable contract has an owner address, and provides basic authorization control\n * functions, this simplifies the implementation of \"user permissions\".\n */\ncontract Ownable {\n  address public owner;\n\n\n  event OwnershipTransferred(address indexed previousOwner, address indexed newOwner);\n\n\n  /**\n   * @dev The Ownable constructor sets the original `owner` of the contract to the sender\n   * account.\n   */\n  function Ownable() public {\n    owner = msg.sender;\n  }\n\n  /**\n   * @dev Throws if called by any account other than the owner.\n   */\n  modifier onlyOwner() {\n    require(msg.sender == owner);\n    _;\n  }\n\n  /**\n   * @dev Allows the current owner to transfer control of the contract to a newOwner.\n   * @param newOwner The address to transfer ownership to.\n   */\n  function transferOwnership(address newOwner) public onlyOwner {\n    require(newOwner != address(0));\n    OwnershipTransferred(owner, newOwner);\n    owner = newOwner;\n  }\n\n}\n\n\n\n/**\n * @title Burnable Token\n * @dev Token that can be irreversibly burned (destroyed).\n */\ncontract BurnableToken is BasicToken {\n\n  event Burn(address indexed burner, uint256 value);\n\n  /**\n   * @dev Burns a specific amount of tokens.\n   * @param _value The amount of token to be burned.\n   */\n  function burn(uint256 _value) public {\n    require(_value <= balances[msg.sender]);\n    // no need to require value <= totalSupply, since that would imply the\n    // sender's balance is greater than the totalSupply, which *should* be an assertion failure\n\n    address burner = msg.sender;\n    balances[burner] = balances[burner].sub(_value);\n    totalSupply_ = totalSupply_.sub(_value);\n    Burn(burner, _value);\n    Transfer(burner, address(0), _value);\n  }\n}\n\n\n\n/**\n * @title Pausable\n * @dev Base contract which allows children to implement an emergency stop mechanism.\n */\ncontract Pausable is Ownable {\n  event Pause();\n  event Unpause();\n\n  bool public paused = false;\n\n\n  /**\n   * @dev Modifier to make a function callable only when the contract is not paused.\n   */\n  modifier whenNotPaused() {\n    require(!paused);\n    _;\n  }\n\n  /**\n   * @dev Modifier to make a function callable only when the contract is paused.\n   */\n  modifier whenPaused() {\n    require(paused);\n    _;\n  }\n\n  /**\n   * @dev called by the owner to pause, triggers stopped state\n   */\n  function pause() onlyOwner whenNotPaused public {\n    paused = true;\n    Pause();\n  }\n\n  /**\n   * @dev called by the owner to unpause, returns to normal state\n   */\n  function unpause() onlyOwner whenPaused public {\n    paused = false;\n    Unpause();\n  }\n}\n\n\n\n/**\n * @title Mintable token\n * @dev Simple ERC20 Token example, with mintable token creation\n * @dev Issue: * https://github.com/OpenZeppelin/zeppelin-solidity/issues/120\n * Based on code by TokenMarketNet: https://github.com/TokenMarketNet/ico/blob/master/contracts/MintableToken.sol\n */\ncontract MintableToken is StandardToken, Ownable {\n  event Mint(address indexed to, uint256 amount);\n  event MintFinished();\n\n  bool public mintingFinished = false;\n\n\n  modifier canMint() {\n    require(!mintingFinished);\n    _;\n  }\n\n  /**\n   * @dev Function to mint tokens\n   * @param _to The address that will receive the minted tokens.\n   * @param _amount The amount of tokens to mint.\n   * @return A boolean that indicates if the operation was successful.\n   */\n  function mint(address _to, uint256 _amount) onlyOwner canMint public returns (bool) {\n    totalSupply_ = totalSupply_.add(_amount);\n    balances[_to] = balances[_to].add(_amount);\n    Mint(_to, _amount);\n    Transfer(address(0), _to, _amount);\n    return true;\n  }\n\n  /**\n   * @dev Function to stop minting new tokens.\n   * @return True if the operation was successful.\n   */\n  function finishMinting() onlyOwner canMint public returns (bool) {\n    mintingFinished = true;\n    MintFinished();\n    return true;\n  }\n}\n\n\n\ncontract SimpleToken is Pausable, BurnableToken, StandardToken {\n\n  using SafeMath for uint256;\n\n  string constant public name = \"SimpleToken\";\n  string constant public symbol = \"ST\";\n  uint256 constant public decimals = 18;\n  address public addressICO;\n  uint256 constant public INITIAL_TOTAL_SUPPLY = 10e6 * (10 ** decimals);\n\n  modifier onlyICO() {\n    require(msg.sender == addressICO);\n    _;\n  }\n\n  function SimpleToken(address _addressICO) public {\n    require(_addressICO != address(0x0));\n    addressICO = _addressICO;\n    totalSupply_ = totalSupply_.add(INITIAL_TOTAL_SUPPLY);\n    balances[_addressICO] = balances[_addressICO].add(INITIAL_TOTAL_SUPPLY);\n    Transfer(address(0x0), _addressICO, INITIAL_TOTAL_SUPPLY);\n    pause();\n  }\n\n  function transfer(address _to, uint256 _value) public whenNotPaused returns (bool) {\n    require(_to != address(0x0));\n    require(_value <= balances[msg.sender]);\n\n    return super.transfer(_to, _value);\n  }\n\n  function transferFrom(address _from, address _to, uint256 _value) public whenNotPaused returns (bool) {\n    require(_from != address(0x0));\n    require(_to != address(0x0));\n\n    return super.transferFrom(_from, _to, _value);\n  }\n\n  function transferFromICO(address _to, uint256 _amount) public onlyICO {\n    require(_to != address(0x0));\n\n    super.transfer(_to, _amount);\n  }\n\n  function burnFromICO() onlyICO public {\n    uint256 remindingTokens = balanceOf(addressICO);\n    balances[addressICO] = balances[addressICO].sub(remindingTokens);\n    totalSupply_ = totalSupply_.sub(remindingTokens);\n    Burn(addressICO, remindingTokens);\n  }\n\n  function burnFrom(address _from, uint256 _value) public {\n    require(_value <= balances[msg.sender]);\n    require(msg.sender == addressICO || msg.sender == owner);\n    // no need to require value <= totalSupply, since that would imply the\n    // sender's balance is greater than the totalSupply, which *should* be an assertion failure\n\n    balances[_from] = balances[_from].sub(_value);\n    totalSupply_ = totalSupply_.sub(_value);\n    Burn(_from, _value);\n    Transfer(_from, address(0), _value);\n  }\n\n}\n\n\n\ncontract WhiteList is Ownable {\n/*\n  using SafeMath for uint256; */\n\n  mapping(address => bool) whiteList;\n  uint256 public whiteListLength = 0;\n\n  function addWallet(address _wallet) onlyOwner public {\n    require(_wallet != address(0x0));\n    require(!isWhiteListed(_wallet));\n\n    whiteList[_wallet] = true;\n    whiteListLength++;\n  }\n\n  function deleteWallet(address _wallet) onlyOwner public {\n    require(_wallet != address(0x0));\n    require(isWhiteListed(_wallet));\n\n    whiteList[_wallet] = false;\n    whiteListLength--;\n  }\n\n  function isWhiteListed(address _wallet) public returns(bool) {\n    return whiteList[_wallet];\n  }\n}\n\n\n\ncontract WhiteListable {\n    WhiteList public whiteList;\n\n    modifier whenWhiteListed(address _wallet) {\n        require(whiteList.isWhiteListed(_wallet));\n        _;\n    }\n\n    function WhiteListable() public {\n        whiteList = new WhiteList();\n    }\n}\n\n\n\ncontract CrowdSale is Pausable, WhiteListable {\n\n  using SafeMath for uint256;\n\n  uint256 constant public decimals = 18;\n  uint256 constant public RESERVED_TOKENS_FOUNDERS = 33e5 * (10 ** decimals);\n  uint256 constant public RESERVED_TOKENS_OPERATIONAL_EXPENSES = 2e5 * (10 ** decimals);\n  uint256 constant public HARDCAP_TOKENS_PRE_ICO = 2e6 * (10 ** decimals);  //5e27\n  uint256 constant public HARDCAP_TOKENS_ICO = 6e6 * (10 ** decimals); //1e8 * (10 ** DECIMALS)\n\n  uint256 public minCap; //in tokens\n\n  uint256 public startPreICO;\n  uint256 public endPreICO;\n  uint256 public startICO;\n  uint256 public endICO;\n\n  uint256 public PreICORate;\n  uint256 public ICORate;\n  uint256 public TokenSoldPreICO; //Token\n  uint256 public TokenSoldICO; //Token\n\n  uint256 public weiRaisedPreICO; //Ether\n  uint256 public weiRaisedICO; //Ether\n\n  uint256 public period1 = 12 * 60 * 60;\n  uint256 public period2 = 1 * 24 * 60 * 60;\n  uint256 public period3 = 3 * 24 * 60 * 60;\n  uint256 public period4 = 4 * 24 * 60 * 60;\n\n  uint256 public tokensRemindingICO = HARDCAP_TOKENS_PRE_ICO.add(HARDCAP_TOKENS_ICO);\n\n  mapping(address => uint256) private investorsPreICO;\n  address private withdrawWallet;\n  /* address[] private investorsICO; */\n\n  SimpleToken public token = new SimpleToken(this);\n\n  function CrowdSale(uint256 _startPreICO,\n                     uint256 _endPreICO,\n                     uint256 _startICO,\n                     uint256 _endICO,\n                     uint256 _PreICORate,\n                     uint256 _ICORate,\n                     uint256 _minCap,\n                     address _founders,\n                     address _operational,\n                     address _withdrawWallet\n                     ) WhiteListable() public {\n    require(_founders != address(0x0) && _operational != address(0x0) && _withdrawWallet != address(0x0));\n    require(_endPreICO > _startPreICO && _startPreICO > now);\n    require(_endICO > _startICO && _startICO > _endPreICO && _startICO > now );\n    require(_PreICORate > 0 && _ICORate > 0);\n\n    startPreICO = _startPreICO;\n    endPreICO = _endPreICO;\n    startICO = _startICO;\n    endICO = _endICO;\n    PreICORate = _PreICORate;\n    ICORate = _ICORate;\n    minCap = _minCap;\n    withdrawWallet = _withdrawWallet;\n\n    token.transferFromICO(_founders, RESERVED_TOKENS_FOUNDERS);\n    token.transferFromICO(_operational, RESERVED_TOKENS_OPERATIONAL_EXPENSES);\n    token.transferOwnership(msg.sender);\n  }\n\n  modifier whenICOSaleHasEnded() {\n    require(now > endICO);\n    _;\n  }\n\n  modifier whenPreICOSaleHasEnded() {\n    require(now > endPreICO);\n    _;\n  }\n\n  function isPreICO() public constant returns(bool) {\n    return now >= startPreICO && now <= endPreICO;\n  }\n\n  function isICO() public constant returns(bool) {\n    return now >= startICO && now <= endICO;\n  }\n\n  function minCapReached() public constant returns(bool) {\n    return TokenSoldPreICO >= minCap;\n  }\n\n  function setWithdrawWallet(address _withdrawWallet) onlyOwner public {\n    require(_withdrawWallet != address(0x0));\n    withdrawWallet = _withdrawWallet;\n  }\n\n  function setStartPreICO(uint256 _startPreICO) onlyOwner public {\n    require(_startPreICO > now);\n    startPreICO = _startPreICO;\n  }\n\n  function setEndPreICO(uint256 _endPreICO) onlyOwner public {\n    require(_endPreICO > now && _endPreICO > startPreICO);\n    endPreICO = _endPreICO;\n  }\n\n  function setStartICO(uint256 _startICO) onlyOwner public {\n    require(_startICO > now);\n    startICO = _startICO;\n  }\n\n  function setEndICO(uint256 _endICO) onlyOwner public {\n    require(_endICO > now && _endICO > startICO);\n    endICO = _endICO;\n  }\n\n  function setPreICORate(uint256 _PreICORate) onlyOwner public {\n    require(_PreICORate > 0);\n    PreICORate = _PreICORate;\n  }\n\n  function setICORate(uint256 _ICORate) onlyOwner public {\n    require(_ICORate > 0);\n    ICORate = _ICORate;\n  }\n\n  function () public payable {\n    if(isPreICO()) {\n      saleTokenPreICO();\n    } else if (isICO()) {\n      saleTokenICO();\n    } else {\n      revert();\n    }\n  }\n\n  function getBonusByTime() private returns(uint256) {\n    if(now >= startICO && now <= startICO.add(period1)) {\n      return 15;\n    }\n    if(now >= startICO && now <= startICO.add(period2)) {\n      return 10;\n    }\n    if(now >= startICO && now <= startICO.add(period3)) {\n      return 7;\n    }\n    if(now >= startICO && now <= startICO.add(period4)) {\n      return 5;\n    }\n    return 0;\n  }\n\n  function getBonusByAmount(uint256 _amount) private returns(uint256) {\n    if(_amount >= 200 * 1e18) {   //10e18\n      return _amount.mul(ICORate).mul(110).div(100);\n    }\n    if(_amount >= 50 * 1e18) {   //5e18\n      return _amount.mul(ICORate).mul(107).div(100);\n    }\n    if(_amount >= 20 * 1e18) {   //5e18\n      return _amount.mul(ICORate).mul(105).div(100);\n    }\n    if(_amount >= 5 * 1e18) {   //5e18\n      return _amount.mul(ICORate).mul(103).div(100);\n    }\n    return _amount.mul(ICORate);\n  }\n\n  function saleTokenPreICO() public payable whenNotPaused whenWhiteListed(msg.sender) {\n    require(isPreICO());\n    require(msg.value > 0);\n    uint256 weiAmount = msg.value;\n    weiRaisedPreICO = weiRaisedPreICO.add(weiAmount);\n    addInvestmentPreICO(msg.sender, weiAmount);\n    uint256 tokenAmountByTime = weiAmount.mul(PreICORate).mul(100 + getBonusByTime()).div(100);\n    uint256 tokenAmountByAmount = getBonusByAmount(weiAmount);\n    uint256 tokenAmount = tokenAmountByTime.add(tokenAmountByAmount);\n    TokenSoldPreICO = TokenSoldPreICO.add(tokenAmount);\n    if(TokenSoldPreICO > HARDCAP_TOKENS_PRE_ICO)\n      revert();\n    tokensRemindingICO = tokensRemindingICO.sub(tokenAmount);\n    token.transferFromICO(msg.sender, tokenAmount);\n  }\n\n  function saleTokenICO() public payable whenNotPaused whenWhiteListed(msg.sender) {\n    require(minCapReached());\n    require(isICO());\n    require(msg.value > 0);\n    uint256 weiAmount = msg.value;\n    weiRaisedICO = weiRaisedICO.add(weiAmount);\n    /* addInvestmentICO(msg.sender, weiAmount); */\n    uint256 tokenAmount = weiAmount.mul(ICORate);\n    token.transferFromICO(msg.sender, tokenAmount);\n    TokenSoldICO = TokenSoldICO.add(tokenAmount);\n    tokensRemindingICO = tokensRemindingICO.sub(tokenAmount);\n    withdrawWallet.transfer(weiAmount); //transfer money imideatelly\n  }\n\n  function addInvestmentPreICO(address _from, uint256 _value) internal {\n    // if(investorsPreICO[_from] == 0){\n    //   investorsPreICO.push(_from);\n    // }\n    investorsPreICO[_from] = investorsPreICO[_from].add(_value);\n  }\n\n  function burnUnsoldTokens() whenICOSaleHasEnded onlyOwner public {\n    token.burnFromICO();\n    tokensRemindingICO = 0;\n  }\n\n  function withdrawPreICO() onlyOwner whenPreICOSaleHasEnded external {\n    require(minCapReached());\n    withdrawWallet.transfer(weiRaisedPreICO);\n  }\n\n  function refund() whenPreICOSaleHasEnded external {\n    require(!minCapReached());\n    require(investorsPreICO[msg.sender] > 0);\n    uint256 weiAmount = investorsPreICO[msg.sender];\n    uint256 tokenAmount = token.balanceOf(msg.sender);\n    investorsPreICO[msg.sender] = investorsPreICO[msg.sender].sub(weiAmount);\n    token.burnFrom(msg.sender, tokenAmount);\n    msg.sender.transfer(weiAmount);\n  }\n\n  //referal bonuses (123123123) 2% 3%\n  function manualTransferToken(address _to, uint256 _amount) onlyOwner external {\n    require(_to != address(0x0));\n    tokensRemindingICO = tokensRemindingICO.sub(_amount);\n    token.transferFromICO(_to, _amount);\n  }\n\n\n}\n",
  "sourcePath": "/Users/macbook/Desktop/GitHub/SimpleTokenICO/contracts/Full.sol",
  "compiler": {
    "name": "solc",
    "version": "0.4.19+commit.c4cbbb05.Emscripten.clang"
  },
  "schemaVersion": "1.0.1",
  "updatedAt": "2018-03-15T10:51:22.298Z"
}